:100000000C9436000C945E000C945E000C945E0020
:100010000C945E000C945E000C945E000C945E00E8
:100020000C945E000C945E000C945E000C945E00D8
:100030000C945E000C945E000C945E000C945E00C8
:100040000C945E000C945E000C945E000C945E00B8
:100050000C945E000C945E000C945E000C945E00A8
:100060000C945E000C945E0040014D0111241FBEF3
:10007000CFEFD8E0DEBFCDBF11E0A0E0B1E0E0E916
:10008000F5E002C005900D92AE30B107D9F721E03E
:10009000AEE0B1E001C01D92A032B207E1F710E07E
:1000A000C5E3D0E004C02197FE010E94B502C4332D
:1000B000D107C9F70E94FD000C94BB020C9400000C
:1000C000CF93DF93CDB7DEB70000DF91CF910895D6
:1000D000CF93DF9300D000D0CDB7DEB79C838B8366
:1000E0008B819C819C01215031093C832B8321E031
:1000F000892B09F420E0222391F08FEF9FEF9A8360
:10010000898389819A819C01215031093A8329830D
:1001100021E0892B09F420E0222311F3F2CF000023
:100120000F900F900F900F90DF91CF910895CF9384
:10013000DF93CDB7DEB789E191E00E949802882F66
:1001400090E090930F0180930E01809110019091A7
:10015000110181309105E9F0823091051CF4892B61
:1001600039F047C08330910509F1049781F141C00E
:1001700080910E0190910F010197A1F581E090E02F
:10018000909311018093100182E191E00E94560248
:1001900029C080910E0190910F01892B29F583E0F0
:1001A00090E090931101809310011EC080910E0188
:1001B00090910F010197D1F484E090E090931101A8
:1001C0008093100182E191E00E9476020FC080913D
:1001D0000E0190910F01892B59F410921101109288
:1001E000100106C0000005C0000003C0000001C0EF
:1001F00000000000DF91CF910895CF93DF93CDB73A
:10020000DEB70E9460000E949700FDCFCF93DF937E
:1002100000D000D0CDB7DEB79A8389837C836B830F
:1002200089819A810197A1F48B819C81019681F447
:1002300040E050E068E070E082E191E00E945A0105
:1002400042E050E063E070E089E191E00E945A01F1
:1002500089819A81892B61F48B819C81019641F47B
:1002600089E191E00E94390282E191E00E94390225
:1002700000000F900F900F900F90DF91CF91089595
:10028000CF93DF93CDB7DEB76FEF7FEF81E090E0E4
:100290000E940601DF91CF910895CF93DF93CDB7F0
:1002A000DEB76FEF7FEF80E090E00E940601DF9104
:1002B000CF910895CF93DF9300D000D000D0CDB779
:1002C000DEB79A8389837C836B835E834D838B81C6
:1002D0009C8108974CF520910001309101018981A2
:1002E0009A81FC0132832183209102013091030124
:1002F00089819A81FC013483238320910401309108
:10030000050189819A81FC013683258381E090E093
:100310000B8002C0880F991F0A94E2F7282F898169
:100320009A81FC01208330C08B819C810E9764F5FB
:100330008B819C819C012850310981E090E002C0B2
:10034000880F991F2A95E2F7282F89819A81FC014D
:100350002083209106013091070189819A81FC0157
:1003600032832183209108013091090189819A818A
:10037000FC013483238320910A0130910B01898190
:100380009A81FC01368325838D819E81892BA1F47E
:1003900089819A81FC018381948129813A81F901C3
:1003A00023813481F901408129813A81F901208139
:1003B000242BFC01208353C08D819E810197B1F4D1
:1003C00089819A81FC018381948129813A81F90193
:1003D00023813481F9012081422F29813A81F90159
:1003E000208120952423FC01208339C08D819E81AA
:1003F0000297A9F580910C0190910D0120910C01BB
:1004000030910D01F9012081207EFC01208389813A
:100410009A81FC018381948129813A81F9012381A8
:100420003481F9012081422F29813A81F90120810B
:1004300020952423FC01208389819A81FC018181FC
:10044000928129813A81F90121813281F90140812A
:1004500029813A81F9012081242BFC0120830000AD
:1004600026960FB6F894DEBF0FBECDBFDF91CF91B9
:100470000895CF93DF9300D0CDB7DEB79A838983F9
:1004800000000F900F90DF91CF910895CF93DF93ED
:1004900000D01F92CDB7DEB79A8389836B830000AB
:1004A0000F900F900F90DF91CF910895CF93DF932E
:1004B00000D0CDB7DEB79A83898389819A81FC0108
:1004C0008181928129813A81F90121813281F90169
:1004D000408129813A81F9012081242BFC0120836C
:1004E00000000F900F90DF91CF910895CF93DF938D
:1004F00000D0CDB7DEB79A83898389819A81FC01C8
:100500008181928129813A81F90121813281F90128
:100510002081422F29813A81F901208120952423CD
:10052000FC01208300000F900F90DF91CF91089580
:10053000CF93DF9300D0CDB7DEB79A8389838981CB
:100540009A81FC0185819681FC01208189819A81B3
:10055000FC018081922F982381E0992309F480E0A7
:100560000F900F90DF91CF910895EE0FFF1F059030
:10057000F491E02D099410E0C5E3D0E004C0FE0141
:100580000E94B5022196C633D107C9F7F894FFCF70
:0E0590002B002A00290025002400230055001E
:00000001FF
